:1000880000482A8EFB0E2A480C1E3E7C7C3E1E0C25
:10006700C2B500C2B300E4FEEF30E004D2B48002B0
:10007700C2B4D2B500C2B500EFC313FF0EBE08E885
:010087002256
:10000300E4FBFA7C7FE4FDAF04120067ED90008807
:1000130093FF120067D2B300C2B300ECC313448052
:10002300FC0DBD08E20BBB00010ABA03D6BBE8D343
:10003300E4FAFB7C7FE4FDAF04120067ED900090CF
:1000430093FF120067D2B300C2B300ECC313448022
:10005300FC0DBD08E20BBB00010ABA03D6BBE8D313
:04006300B290809C3B
:0300000002009863
:0C009800787FE4F6D8FD758107020003B4
:00000001FF
