:1002C90000482A8EFB0E2A480C1E3E7C7C3E1E0CE2
:1002D9000000000000000000FFFFFFFFFFFFFFFF1D
:08033C00041000000000C18064
:1002A800C2B500C2B300E4FEEF30E004D2B480026D
:1002B800C2B4D2B500C2B500EFC313FF0EBE08E842
:0102C8002213
:1002E900E4FD0FEFAA0670010E14F5828A83E493E8
:0B02F900FC74082DF8A6040DBD08E7FA
:0103040022D6
:10030500E4FD0FEFAA0670010E14F5828A83E493CB
:0B031500FC74082DF8A6040DBD08E7DD
:0103200022BA
:03000B000200ED03
:1000ED00C0E0C0F0C083C082C0D075D000C000C0D9
:1000FD0001C002C003C004C005C006C007E513243B
:10010D0001F513E43512F512E43511F511E435104E
:10011D00F510300057E47B28FAF9F8AF13AE12ADA5
:10012D0011AC1012004AAC00AD01AE02AF03E4FBFE
:10013D00FAF9F8C31200DC70077E027FC91202E9DA
:10014D00E47B28FAF9F8AF13AE12AD11AC10120022
:10015D004AAC00AD01AE02AF03E47B14FAF9F8C36B
:10016D001200DC70077E027FD11202E97F007E282B
:10017D007D6B7CEEAB13AA12A911A810C31200DC83
:10018D007008F513F512F511F510D007D006D0054E
:10019D00D004D003D002D001D000D0D0D082D083F3
:0501AD00D0F0D0E032AB
:10032100538E7FE4F589F58A758C4CD28CD2A9D293
:02033100AF22F9
:0300030002023EB8
:10023E00C0E0C083C082C0D075D000C000C002C074
:10024E0004C005C006C007A200B3920050067E028D
:10025E007FE180047E027FD91202E9D007D006D05A
:10026E0005D004D002D000D0D0D082D083D0E032DE
:09033300D2B2D288D2A8D2AF22C6
:10027E001203211203337D7FE4FCAF051202A87432
:10028E00082CF8E6FF1202A8D2B300C2B300EDC3E9
:0A029E00134480FD0CBC08E280DC74
:030000000201B248
:0C01B200787FE4F6D8FD7581200201F989
:10000E0075F008758200EF2FFFEE33FECD33CDCCA9
:10001E0033CCC58233C5829BED9AEC99E58298402C
:10002E000CF582EE9BFEED9AFDEC99FC0FD5F0D609
:10003E00E4CEFBE4CDFAE4CCF9A88222B800C1B933
:10004E000059BA002DEC8BF084CFCECDFCE5F0CB71
:10005E00F97818EF2FFFEE33FEED33FDEC33FCEBAA
:10006E0033FB10D703994004EB99FB0FD8E5E4F965
:10007E00FA227818EF2FFFEE33FEED33FDEC33FC52
:10008E00C933C910D7059BE99A4007EC9BFCE99A46
:10009E00F90FD8E0E4C9FAE4CCFB2275F010EF2F8B
:1000AE00FFEE33FEED33FDCC33CCC833C810D7078B
:1000BE009BEC9AE899400AED9BFDEC9AFCE899F8C6
:0E00CE000FD5F0DAE4CDFBE4CCFAE4C8F92259
:1000DC00EB9FF5F0EA9E42F0E99D42F0E89C45F07A
:0100EC0022F1
:1001BE0002027EE493A3F8E493A34003F68001F2D7
:1001CE0008DFF48029E493A3F85407240CC8C33342
:1001DE00C4540F4420C8834004F456800146F6DF11
:1001EE00E4800B010204081020408090033CE47E62
:1001FE00019360BCA3FF543F30E509541FFEE49306
:10020E00A360010ECF54C025E060A840B8E493A3CC
:10021E00FAE493A3F8E493A3C8C582C8CAC583CAF7
:10022E00F0A3C8C582C8CAC583CADFE9DEE780BEAF
:0103440000B8
:00000001FF
