:1002CD0000482A8EFB0E2A480C1E3E7C7C3E1E0CDE
:06000300041000000000E3
:10026200C2B500C2B300E4FEEF30E004D2B48002B3
:10027200C2B4D2B500C2B500EFC313FF0EBE08E888
:010282002259
:10028300E4FD0FEFAA0670010E14F5828A83E4934E
:0B029300FC74082DF8A6040DBD08E760
:01029E00223D
:10029F00E4FD0FEFAA0670010E14F5828A83E49332
:0B02AF00FC74082DF8A6040DBD08E744
:0102BA002221
:03000B000200ED03
:1000ED00C0E0C0F0C083C082C0D075D000C000C0D9
:1000FD0001C002C003C004C005C006C007E513243B
:10010D0001F513E43512F512E43511F511E435104E
:10011D00F510E47B28FAF9F8AF13AE12AD11AC105F
:10012D0012004AAC00AD01AE02AF03E4FBFAF9F8E0
:10013D00C31200DC70077E027FCD120283E47B28A0
:10014D00FAF9F8AF13AE12AD11AC1012004AAC00B3
:10015D00AD01AE02AF03E47B14FAF9F8C31200DC73
:10016D0070077E027FD51202837F007E287D6B7C17
:10017D00EEAB13AA12A911A810C31200DC7008F57A
:10018D0013F512F511F510D007D006D005D004D017
:10019D0003D002D001D000D0D0D082D083D0F0D007
:0201AD00E0323E
:1002BB00538E7FE4F589F58A758C4CD28CD2A9D2FA
:0202CB00AF2260
:10023B001202BB7D7FE4FCAF0512026274082CF83E
:10024B00E6FF120262D2B300C2B300EDC3134480C7
:07025B00FD0CBC08E280DC91
:030000000201AF4B
:0C01AF00787FE4F6D8FD7581130201F69C
:10000E0075F008758200EF2FFFEE33FECD33CDCCA9
:10001E0033CCC58233C5829BED9AEC99E58298402C
:10002E000CF582EE9BFEED9AFDEC99FC0FD5F0D609
:10003E00E4CEFBE4CDFAE4CCF9A88222B800C1B933
:10004E000059BA002DEC8BF084CFCECDFCE5F0CB71
:10005E00F97818EF2FFFEE33FEED33FDEC33FCEBAA
:10006E0033FB10D703994004EB99FB0FD8E5E4F965
:10007E00FA227818EF2FFFEE33FEED33FDEC33FC52
:10008E00C933C910D7059BE99A4007EC9BFCE99A46
:10009E00F90FD8E0E4C9FAE4CCFB2275F010EF2F8B
:1000AE00FFEE33FEED33FDCC33CCC833C810D7078B
:1000BE009BEC9AE899400AED9BFDEC9AFCE899F8C6
:0E00CE000FD5F0DAE4CDFBE4CCFAE4C8F92259
:1000DC00EB9FF5F0EA9E42F0E99D42F0E89C45F07A
:0100EC0022F1
:1001BB0002023BE493A3F8E493A34003F68001F21D
:1001CB0008DFF48029E493A3F85407240CC8C33345
:1001DB00C4540F4420C8834004F456800146F6DF14
:1001EB00E4800B0102040810204080900003E47EA1
:1001FB00019360BCA3FF543F30E509541FFEE49309
:10020B00A360010ECF54C025E060A840B8E493A3CF
:10021B00FAE493A3F8E493A3C8C582C8CAC583CAFA
:10022B00F0A3C8C582C8CAC583CADFE9DEE780BEB2
:0100090000F6
:00000001FF
